{
  "_format": "hh-sol-artifact-1",
  "contractName": "TicketNFT",
  "sourceName": "contracts/Ticket.sol",
  "abi": [
    {
      "inputs": [
        {
          "internalType": "string",
          "name": "baseURI",
          "type": "string"
        }
      ],
      "stateMutability": "nonpayable",
      "type": "constructor"
    },
    {
      "anonymous": false,
      "inputs": [
        {
          "indexed": true,
          "internalType": "address",
          "name": "owner",
          "type": "address"
        },
        {
          "indexed": true,
          "internalType": "address",
          "name": "approved",
          "type": "address"
        },
        {
          "indexed": true,
          "internalType": "uint256",
          "name": "tokenId",
          "type": "uint256"
        }
      ],
      "name": "Approval",
      "type": "event"
    },
    {
      "anonymous": false,
      "inputs": [
        {
          "indexed": true,
          "internalType": "address",
          "name": "owner",
          "type": "address"
        },
        {
          "indexed": true,
          "internalType": "address",
          "name": "operator",
          "type": "address"
        },
        {
          "indexed": false,
          "internalType": "bool",
          "name": "approved",
          "type": "bool"
        }
      ],
      "name": "ApprovalForAll",
      "type": "event"
    },
    {
      "anonymous": false,
      "inputs": [
        {
          "indexed": true,
          "internalType": "address",
          "name": "previousOwner",
          "type": "address"
        },
        {
          "indexed": true,
          "internalType": "address",
          "name": "newOwner",
          "type": "address"
        }
      ],
      "name": "OwnershipTransferred",
      "type": "event"
    },
    {
      "anonymous": false,
      "inputs": [
        {
          "indexed": true,
          "internalType": "address",
          "name": "from",
          "type": "address"
        },
        {
          "indexed": true,
          "internalType": "address",
          "name": "to",
          "type": "address"
        },
        {
          "indexed": true,
          "internalType": "uint256",
          "name": "tokenId",
          "type": "uint256"
        }
      ],
      "name": "Transfer",
      "type": "event"
    },
    {
      "inputs": [],
      "name": "MAX_PER_MINT",
      "outputs": [
        {
          "internalType": "uint256",
          "name": "",
          "type": "uint256"
        }
      ],
      "stateMutability": "view",
      "type": "function"
    },
    {
      "inputs": [],
      "name": "MAX_SUPPLY",
      "outputs": [
        {
          "internalType": "uint256",
          "name": "",
          "type": "uint256"
        }
      ],
      "stateMutability": "view",
      "type": "function"
    },
    {
      "inputs": [],
      "name": "PRICE",
      "outputs": [
        {
          "internalType": "uint256",
          "name": "",
          "type": "uint256"
        }
      ],
      "stateMutability": "view",
      "type": "function"
    },
    {
      "inputs": [
        {
          "internalType": "address",
          "name": "to",
          "type": "address"
        },
        {
          "internalType": "uint256",
          "name": "tokenId",
          "type": "uint256"
        }
      ],
      "name": "approve",
      "outputs": [],
      "stateMutability": "nonpayable",
      "type": "function"
    },
    {
      "inputs": [
        {
          "internalType": "address",
          "name": "owner",
          "type": "address"
        }
      ],
      "name": "balanceOf",
      "outputs": [
        {
          "internalType": "uint256",
          "name": "",
          "type": "uint256"
        }
      ],
      "stateMutability": "view",
      "type": "function"
    },
    {
      "inputs": [],
      "name": "baseTokenURI",
      "outputs": [
        {
          "internalType": "string",
          "name": "",
          "type": "string"
        }
      ],
      "stateMutability": "view",
      "type": "function"
    },
    {
      "inputs": [
        {
          "internalType": "uint256",
          "name": "tokenId",
          "type": "uint256"
        }
      ],
      "name": "getApproved",
      "outputs": [
        {
          "internalType": "address",
          "name": "",
          "type": "address"
        }
      ],
      "stateMutability": "view",
      "type": "function"
    },
    {
      "inputs": [
        {
          "internalType": "address",
          "name": "owner",
          "type": "address"
        },
        {
          "internalType": "address",
          "name": "operator",
          "type": "address"
        }
      ],
      "name": "isApprovedForAll",
      "outputs": [
        {
          "internalType": "bool",
          "name": "",
          "type": "bool"
        }
      ],
      "stateMutability": "view",
      "type": "function"
    },
    {
      "inputs": [
        {
          "internalType": "uint256",
          "name": "_count",
          "type": "uint256"
        }
      ],
      "name": "mintNFTs",
      "outputs": [],
      "stateMutability": "payable",
      "type": "function"
    },
    {
      "inputs": [],
      "name": "name",
      "outputs": [
        {
          "internalType": "string",
          "name": "",
          "type": "string"
        }
      ],
      "stateMutability": "view",
      "type": "function"
    },
    {
      "inputs": [],
      "name": "owner",
      "outputs": [
        {
          "internalType": "address",
          "name": "",
          "type": "address"
        }
      ],
      "stateMutability": "view",
      "type": "function"
    },
    {
      "inputs": [
        {
          "internalType": "uint256",
          "name": "tokenId",
          "type": "uint256"
        }
      ],
      "name": "ownerOf",
      "outputs": [
        {
          "internalType": "address",
          "name": "",
          "type": "address"
        }
      ],
      "stateMutability": "view",
      "type": "function"
    },
    {
      "inputs": [],
      "name": "renounceOwnership",
      "outputs": [],
      "stateMutability": "nonpayable",
      "type": "function"
    },
    {
      "inputs": [],
      "name": "reserveNFTs",
      "outputs": [],
      "stateMutability": "nonpayable",
      "type": "function"
    },
    {
      "inputs": [
        {
          "internalType": "address",
          "name": "from",
          "type": "address"
        },
        {
          "internalType": "address",
          "name": "to",
          "type": "address"
        },
        {
          "internalType": "uint256",
          "name": "tokenId",
          "type": "uint256"
        }
      ],
      "name": "safeTransferFrom",
      "outputs": [],
      "stateMutability": "nonpayable",
      "type": "function"
    },
    {
      "inputs": [
        {
          "internalType": "address",
          "name": "from",
          "type": "address"
        },
        {
          "internalType": "address",
          "name": "to",
          "type": "address"
        },
        {
          "internalType": "uint256",
          "name": "tokenId",
          "type": "uint256"
        },
        {
          "internalType": "bytes",
          "name": "data",
          "type": "bytes"
        }
      ],
      "name": "safeTransferFrom",
      "outputs": [],
      "stateMutability": "nonpayable",
      "type": "function"
    },
    {
      "inputs": [
        {
          "internalType": "address",
          "name": "operator",
          "type": "address"
        },
        {
          "internalType": "bool",
          "name": "approved",
          "type": "bool"
        }
      ],
      "name": "setApprovalForAll",
      "outputs": [],
      "stateMutability": "nonpayable",
      "type": "function"
    },
    {
      "inputs": [
        {
          "internalType": "string",
          "name": "_baseTokenURI",
          "type": "string"
        }
      ],
      "name": "setBaseURI",
      "outputs": [],
      "stateMutability": "nonpayable",
      "type": "function"
    },
    {
      "inputs": [
        {
          "internalType": "bytes4",
          "name": "interfaceId",
          "type": "bytes4"
        }
      ],
      "name": "supportsInterface",
      "outputs": [
        {
          "internalType": "bool",
          "name": "",
          "type": "bool"
        }
      ],
      "stateMutability": "view",
      "type": "function"
    },
    {
      "inputs": [],
      "name": "symbol",
      "outputs": [
        {
          "internalType": "string",
          "name": "",
          "type": "string"
        }
      ],
      "stateMutability": "view",
      "type": "function"
    },
    {
      "inputs": [
        {
          "internalType": "uint256",
          "name": "index",
          "type": "uint256"
        }
      ],
      "name": "tokenByIndex",
      "outputs": [
        {
          "internalType": "uint256",
          "name": "",
          "type": "uint256"
        }
      ],
      "stateMutability": "view",
      "type": "function"
    },
    {
      "inputs": [
        {
          "internalType": "address",
          "name": "owner",
          "type": "address"
        },
        {
          "internalType": "uint256",
          "name": "index",
          "type": "uint256"
        }
      ],
      "name": "tokenOfOwnerByIndex",
      "outputs": [
        {
          "internalType": "uint256",
          "name": "",
          "type": "uint256"
        }
      ],
      "stateMutability": "view",
      "type": "function"
    },
    {
      "inputs": [
        {
          "internalType": "uint256",
          "name": "tokenId",
          "type": "uint256"
        }
      ],
      "name": "tokenURI",
      "outputs": [
        {
          "internalType": "string",
          "name": "",
          "type": "string"
        }
      ],
      "stateMutability": "view",
      "type": "function"
    },
    {
      "inputs": [
        {
          "internalType": "address",
          "name": "_owner",
          "type": "address"
        }
      ],
      "name": "tokensOfOwner",
      "outputs": [
        {
          "internalType": "uint256[]",
          "name": "",
          "type": "uint256[]"
        }
      ],
      "stateMutability": "view",
      "type": "function"
    },
    {
      "inputs": [],
      "name": "totalSupply",
      "outputs": [
        {
          "internalType": "uint256",
          "name": "",
          "type": "uint256"
        }
      ],
      "stateMutability": "view",
      "type": "function"
    },
    {
      "inputs": [
        {
          "internalType": "address",
          "name": "from",
          "type": "address"
        },
        {
          "internalType": "address",
          "name": "to",
          "type": "address"
        },
        {
          "internalType": "uint256",
          "name": "tokenId",
          "type": "uint256"
        }
      ],
      "name": "transferFrom",
      "outputs": [],
      "stateMutability": "nonpayable",
      "type": "function"
    },
    {
      "inputs": [
        {
          "internalType": "address",
          "name": "newOwner",
          "type": "address"
        }
      ],
      "name": "transferOwnership",
      "outputs": [],
      "stateMutability": "nonpayable",
      "type": "function"
    },
    {
      "inputs": [],
      "name": "withdraw",
      "outputs": [],
      "stateMutability": "payable",
      "type": "function"
    }
  ],
  "bytecode": "0x60806040523480156200001157600080fd5b506040516200442f3803806200442f833981810160405281019062000037919062000511565b6040518060400160405280600f81526020017f4e465420436f6c6c65637469626c6500000000000000000000000000000000008152506040518060400160405280600481526020017f4e465443000000000000000000000000000000000000000000000000000000008152508160009080519060200190620000bb929190620002c4565b508060019080519060200190620000d4929190620002c4565b505050620000f7620000eb6200010f60201b60201c565b6200011760201b60201c565b6200010881620001dd60201b60201c565b506200064a565b600033905090565b6000600a60009054906101000a900473ffffffffffffffffffffffffffffffffffffffff16905081600a60006101000a81548173ffffffffffffffffffffffffffffffffffffffff021916908373ffffffffffffffffffffffffffffffffffffffff1602179055508173ffffffffffffffffffffffffffffffffffffffff168173ffffffffffffffffffffffffffffffffffffffff167f8be0079c531659141344cd1fd0a4f28419497f9722a3daafe3b4186f6b6457e060405160405180910390a35050565b620001ed6200020960201b60201c565b80600c908051906020019062000205929190620002c4565b5050565b620002196200010f60201b60201c565b73ffffffffffffffffffffffffffffffffffffffff166200023f6200029a60201b60201c565b73ffffffffffffffffffffffffffffffffffffffff161462000298576040517f08c379a00000000000000000000000000000000000000000000000000000000081526004016200028f90620005c3565b60405180910390fd5b565b6000600a60009054906101000a900473ffffffffffffffffffffffffffffffffffffffff16905090565b828054620002d29062000614565b90600052602060002090601f016020900481019282620002f6576000855562000342565b82601f106200031157805160ff191683800117855562000342565b8280016001018555821562000342579182015b828111156200034157825182559160200191906001019062000324565b5b50905062000351919062000355565b5090565b5b808211156200037057600081600090555060010162000356565b5090565b6000604051905090565b600080fd5b600080fd5b600080fd5b600080fd5b6000601f19601f8301169050919050565b7f4e487b7100000000000000000000000000000000000000000000000000000000600052604160045260246000fd5b620003dd8262000392565b810181811067ffffffffffffffff82111715620003ff57620003fe620003a3565b5b80604052505050565b60006200041462000374565b9050620004228282620003d2565b919050565b600067ffffffffffffffff821115620004455762000444620003a3565b5b620004508262000392565b9050602081019050919050565b60005b838110156200047d57808201518184015260208101905062000460565b838111156200048d576000848401525b50505050565b6000620004aa620004a48462000427565b62000408565b905082815260208101848484011115620004c957620004c86200038d565b5b620004d68482856200045d565b509392505050565b600082601f830112620004f657620004f562000388565b5b81516200050884826020860162000493565b91505092915050565b6000602082840312156200052a57620005296200037e565b5b600082015167ffffffffffffffff8111156200054b576200054a62000383565b5b6200055984828501620004de565b91505092915050565b600082825260208201905092915050565b7f4f776e61626c653a2063616c6c6572206973206e6f7420746865206f776e6572600082015250565b6000620005ab60208362000562565b9150620005b88262000573565b602082019050919050565b60006020820190508181036000830152620005de816200059c565b9050919050565b7f4e487b7100000000000000000000000000000000000000000000000000000000600052602260045260246000fd5b600060028204905060018216806200062d57607f821691505b60208210811415620006445762000643620005e5565b5b50919050565b613dd5806200065a6000396000f3fe6080604052600436106101b75760003560e01c806355f804b3116100ec57806395d89b411161008a578063c87b56dd11610064578063c87b56dd146105de578063d547cfb71461061b578063e985e9c514610646578063f2fde38b14610683576101b7565b806395d89b4114610561578063a22cb4651461058c578063b88d4fde146105b5576101b7565b8063715018a6116100c6578063715018a6146104b75780638462151c146104ce5780638d859f3e1461050b5780638da5cb5b14610536576101b7565b806355f804b3146104145780636352211e1461043d57806370a082311461047a576101b7565b806323b872dd116101595780633b4b1381116101335780633b4b1381146103885780633ccfd60b146103a457806342842e0e146103ae5780634f6ccce7146103d7576101b7565b806323b872dd146102f75780632f745c591461032057806332cb6b0c1461035d576101b7565b8063095ea7b311610195578063095ea7b31461026157806309d42b301461028a578063144100c7146102b557806318160ddd146102cc576101b7565b806301ffc9a7146101bc57806306fdde03146101f9578063081812fc14610224575b600080fd5b3480156101c857600080fd5b506101e360048036038101906101de91906127a5565b6106ac565b6040516101f091906127ed565b60405180910390f35b34801561020557600080fd5b5061020e610726565b60405161021b91906128a1565b60405180910390f35b34801561023057600080fd5b5061024b600480360381019061024691906128f9565b6107b8565b6040516102589190612967565b60405180910390f35b34801561026d57600080fd5b50610288600480360381019061028391906129ae565b6107fe565b005b34801561029657600080fd5b5061029f610916565b6040516102ac91906129fd565b60405180910390f35b3480156102c157600080fd5b506102ca61091b565b005b3480156102d857600080fd5b506102e16109b2565b6040516102ee91906129fd565b60405180910390f35b34801561030357600080fd5b5061031e60048036038101906103199190612a18565b6109bf565b005b34801561032c57600080fd5b50610347600480360381019061034291906129ae565b610a1f565b60405161035491906129fd565b60405180910390f35b34801561036957600080fd5b50610372610ac4565b60405161037f91906129fd565b60405180910390f35b6103a2600480360381019061039d91906128f9565b610ac9565b005b6103ac610c04565b005b3480156103ba57600080fd5b506103d560048036038101906103d09190612a18565b610d04565b005b3480156103e357600080fd5b506103fe60048036038101906103f991906128f9565b610d24565b60405161040b91906129fd565b60405180910390f35b34801561042057600080fd5b5061043b60048036038101906104369190612ba0565b610d95565b005b34801561044957600080fd5b50610464600480360381019061045f91906128f9565b610db7565b6040516104719190612967565b60405180910390f35b34801561048657600080fd5b506104a1600480360381019061049c9190612be9565b610e69565b6040516104ae91906129fd565b60405180910390f35b3480156104c357600080fd5b506104cc610f21565b005b3480156104da57600080fd5b506104f560048036038101906104f09190612be9565b610f35565b6040516105029190612cd4565b60405180910390f35b34801561051757600080fd5b50610520610fe3565b60405161052d91906129fd565b60405180910390f35b34801561054257600080fd5b5061054b610fee565b6040516105589190612967565b60405180910390f35b34801561056d57600080fd5b50610576611018565b60405161058391906128a1565b60405180910390f35b34801561059857600080fd5b506105b360048036038101906105ae9190612d22565b6110aa565b005b3480156105c157600080fd5b506105dc60048036038101906105d79190612e03565b6110c0565b005b3480156105ea57600080fd5b50610605600480360381019061060091906128f9565b611122565b60405161061291906128a1565b60405180910390f35b34801561062757600080fd5b5061063061118a565b60405161063d91906128a1565b60405180910390f35b34801561065257600080fd5b5061066d60048036038101906106689190612e86565b611218565b60405161067a91906127ed565b60405180910390f35b34801561068f57600080fd5b506106aa60048036038101906106a59190612be9565b6112ac565b005b60007f780e9d63000000000000000000000000000000000000000000000000000000007bffffffffffffffffffffffffffffffffffffffffffffffffffffffff1916827bffffffffffffffffffffffffffffffffffffffffffffffffffffffff1916148061071f575061071e82611330565b5b9050919050565b60606000805461073590612ef5565b80601f016020809104026020016040519081016040528092919081815260200182805461076190612ef5565b80156107ae5780601f10610783576101008083540402835291602001916107ae565b820191906000526020600020905b81548152906001019060200180831161079157829003601f168201915b5050505050905090565b60006107c382611412565b6004600083815260200190815260200160002060009054906101000a900473ffffffffffffffffffffffffffffffffffffffff169050919050565b600061080982610db7565b90508073ffffffffffffffffffffffffffffffffffffffff168373ffffffffffffffffffffffffffffffffffffffff16141561087a576040517f08c379a000000000000000000000000000000000000000000000000000000000815260040161087190612f99565b60405180910390fd5b8073ffffffffffffffffffffffffffffffffffffffff1661089961145d565b73ffffffffffffffffffffffffffffffffffffffff1614806108c857506108c7816108c261145d565b611218565b5b610907576040517f08c379a00000000000000000000000000000000000000000000000000000000081526004016108fe9061302b565b60405180910390fd5b6109118383611465565b505050565b600581565b61092361151e565b600061092f600b61159c565b90506064610947600a836115aa90919063ffffffff16565b10610987576040517f08c379a000000000000000000000000000000000000000000000000000000000815260040161097e90613097565b60405180910390fd5b60005b600a8110156109ae5761099b6115c0565b80806109a6906130e6565b91505061098a565b5050565b6000600880549050905090565b6109d06109ca61145d565b826115e5565b610a0f576040517f08c379a0000000000000000000000000000000000000000000000000000000008152600401610a06906131a1565b60405180910390fd5b610a1a83838361167a565b505050565b6000610a2a83610e69565b8210610a6b576040517f08c379a0000000000000000000000000000000000000000000000000000000008152600401610a6290613233565b60405180910390fd5b600660008473ffffffffffffffffffffffffffffffffffffffff1673ffffffffffffffffffffffffffffffffffffffff168152602001908152602001600020600083815260200190815260200160002054905092915050565b606481565b6000610ad5600b61159c565b90506064610aec83836115aa90919063ffffffff16565b1115610b2d576040517f08c379a0000000000000000000000000000000000000000000000000000000008152600401610b249061329f565b60405180910390fd5b600082118015610b3e575060058211155b610b7d576040517f08c379a0000000000000000000000000000000000000000000000000000000008152600401610b7490613331565b60405180910390fd5b610b9782662386f26fc100006118e190919063ffffffff16565b341015610bd9576040517f08c379a0000000000000000000000000000000000000000000000000000000008152600401610bd0906133c3565b60405180910390fd5b60005b82811015610bff57610bec6115c0565b8080610bf7906130e6565b915050610bdc565b505050565b610c0c61151e565b600047905060008111610c54576040517f08c379a0000000000000000000000000000000000000000000000000000000008152600401610c4b9061342f565b60405180910390fd5b60003373ffffffffffffffffffffffffffffffffffffffff1682604051610c7a90613480565b60006040518083038185875af1925050503d8060008114610cb7576040519150601f19603f3d011682016040523d82523d6000602084013e610cbc565b606091505b5050905080610d00576040517f08c379a0000000000000000000000000000000000000000000000000000000008152600401610cf7906134e1565b60405180910390fd5b5050565b610d1f838383604051806020016040528060008152506110c0565b505050565b6000610d2e6109b2565b8210610d6f576040517f08c379a0000000000000000000000000000000000000000000000000000000008152600401610d6690613573565b60405180910390fd5b60088281548110610d8357610d82613593565b5b90600052602060002001549050919050565b610d9d61151e565b80600c9080519060200190610db3929190612696565b5050565b6000806002600084815260200190815260200160002060009054906101000a900473ffffffffffffffffffffffffffffffffffffffff169050600073ffffffffffffffffffffffffffffffffffffffff168173ffffffffffffffffffffffffffffffffffffffff161415610e60576040517f08c379a0000000000000000000000000000000000000000000000000000000008152600401610e579061360e565b60405180910390fd5b80915050919050565b60008073ffffffffffffffffffffffffffffffffffffffff168273ffffffffffffffffffffffffffffffffffffffff161415610eda576040517f08c379a0000000000000000000000000000000000000000000000000000000008152600401610ed1906136a0565b60405180910390fd5b600360008373ffffffffffffffffffffffffffffffffffffffff1673ffffffffffffffffffffffffffffffffffffffff168152602001908152602001600020549050919050565b610f2961151e565b610f3360006118f7565b565b60606000610f4283610e69565b905060008167ffffffffffffffff811115610f6057610f5f612a75565b5b604051908082528060200260200182016040528015610f8e5781602001602082028036833780820191505090505b50905060005b82811015610fd857610fa68582610a1f565b828281518110610fb957610fb8613593565b5b6020026020010181815250508080610fd0906130e6565b915050610f94565b508092505050919050565b662386f26fc1000081565b6000600a60009054906101000a900473ffffffffffffffffffffffffffffffffffffffff16905090565b60606001805461102790612ef5565b80601f016020809104026020016040519081016040528092919081815260200182805461105390612ef5565b80156110a05780601f10611075576101008083540402835291602001916110a0565b820191906000526020600020905b81548152906001019060200180831161108357829003601f168201915b5050505050905090565b6110bc6110b561145d565b83836119bd565b5050565b6110d16110cb61145d565b836115e5565b611110576040517f08c379a0000000000000000000000000000000000000000000000000000000008152600401611107906131a1565b60405180910390fd5b61111c84848484611b2a565b50505050565b606061112d82611412565b6000611137611b86565b905060008151116111575760405180602001604052806000815250611182565b8061116184611c18565b6040516020016111729291906136fc565b6040516020818303038152906040525b915050919050565b600c805461119790612ef5565b80601f01602080910402602001604051908101604052809291908181526020018280546111c390612ef5565b80156112105780601f106111e557610100808354040283529160200191611210565b820191906000526020600020905b8154815290600101906020018083116111f357829003601f168201915b505050505081565b6000600560008473ffffffffffffffffffffffffffffffffffffffff1673ffffffffffffffffffffffffffffffffffffffff16815260200190815260200160002060008373ffffffffffffffffffffffffffffffffffffffff1673ffffffffffffffffffffffffffffffffffffffff16815260200190815260200160002060009054906101000a900460ff16905092915050565b6112b461151e565b600073ffffffffffffffffffffffffffffffffffffffff168173ffffffffffffffffffffffffffffffffffffffff161415611324576040517f08c379a000000000000000000000000000000000000000000000000000000000815260040161131b90613792565b60405180910390fd5b61132d816118f7565b50565b60007f80ac58cd000000000000000000000000000000000000000000000000000000007bffffffffffffffffffffffffffffffffffffffffffffffffffffffff1916827bffffffffffffffffffffffffffffffffffffffffffffffffffffffff191614806113fb57507f5b5e139f000000000000000000000000000000000000000000000000000000007bffffffffffffffffffffffffffffffffffffffffffffffffffffffff1916827bffffffffffffffffffffffffffffffffffffffffffffffffffffffff1916145b8061140b575061140a82611d79565b5b9050919050565b61141b81611de3565b61145a576040517f08c379a00000000000000000000000000000000000000000000000000000000081526004016114519061360e565b60405180910390fd5b50565b600033905090565b816004600083815260200190815260200160002060006101000a81548173ffffffffffffffffffffffffffffffffffffffff021916908373ffffffffffffffffffffffffffffffffffffffff160217905550808273ffffffffffffffffffffffffffffffffffffffff166114d883610db7565b73ffffffffffffffffffffffffffffffffffffffff167f8c5be1e5ebec7d5bd14f71427d1e84f3dd0314c0f7b2291e5b200ac8c7c3b92560405160405180910390a45050565b61152661145d565b73ffffffffffffffffffffffffffffffffffffffff16611544610fee565b73ffffffffffffffffffffffffffffffffffffffff161461159a576040517f08c379a0000000000000000000000000000000000000000000000000000000008152600401611591906137fe565b60405180910390fd5b565b600081600001549050919050565b600081836115b8919061381e565b905092915050565b60006115cc600b61159c565b90506115d83382611e4f565b6115e2600b611e6d565b50565b6000806115f183610db7565b90508073ffffffffffffffffffffffffffffffffffffffff168473ffffffffffffffffffffffffffffffffffffffff16148061163357506116328185611218565b5b8061167157508373ffffffffffffffffffffffffffffffffffffffff16611659846107b8565b73ffffffffffffffffffffffffffffffffffffffff16145b91505092915050565b8273ffffffffffffffffffffffffffffffffffffffff1661169a82610db7565b73ffffffffffffffffffffffffffffffffffffffff16146116f0576040517f08c379a00000000000000000000000000000000000000000000000000000000081526004016116e7906138e6565b60405180910390fd5b600073ffffffffffffffffffffffffffffffffffffffff168273ffffffffffffffffffffffffffffffffffffffff161415611760576040517f08c379a000000000000000000000000000000000000000000000000000000000815260040161175790613978565b60405180910390fd5b61176b838383611e83565b611776600082611465565b6001600360008573ffffffffffffffffffffffffffffffffffffffff1673ffffffffffffffffffffffffffffffffffffffff16815260200190815260200160002060008282546117c69190613998565b925050819055506001600360008473ffffffffffffffffffffffffffffffffffffffff1673ffffffffffffffffffffffffffffffffffffffff168152602001908152602001600020600082825461181d919061381e565b92505081905550816002600083815260200190815260200160002060006101000a81548173ffffffffffffffffffffffffffffffffffffffff021916908373ffffffffffffffffffffffffffffffffffffffff160217905550808273ffffffffffffffffffffffffffffffffffffffff168473ffffffffffffffffffffffffffffffffffffffff167fddf252ad1be2c89b69c2b068fc378daa952ba7f163c4a11628f55a4df523b3ef60405160405180910390a46118dc838383611f97565b505050565b600081836118ef91906139cc565b905092915050565b6000600a60009054906101000a900473ffffffffffffffffffffffffffffffffffffffff16905081600a60006101000a81548173ffffffffffffffffffffffffffffffffffffffff021916908373ffffffffffffffffffffffffffffffffffffffff1602179055508173ffffffffffffffffffffffffffffffffffffffff168173ffffffffffffffffffffffffffffffffffffffff167f8be0079c531659141344cd1fd0a4f28419497f9722a3daafe3b4186f6b6457e060405160405180910390a35050565b8173ffffffffffffffffffffffffffffffffffffffff168373ffffffffffffffffffffffffffffffffffffffff161415611a2c576040517f08c379a0000000000000000000000000000000000000000000000000000000008152600401611a2390613a72565b60405180910390fd5b80600560008573ffffffffffffffffffffffffffffffffffffffff1673ffffffffffffffffffffffffffffffffffffffff16815260200190815260200160002060008473ffffffffffffffffffffffffffffffffffffffff1673ffffffffffffffffffffffffffffffffffffffff16815260200190815260200160002060006101000a81548160ff0219169083151502179055508173ffffffffffffffffffffffffffffffffffffffff168373ffffffffffffffffffffffffffffffffffffffff167f17307eab39ab6107e8899845ad3d59bd9653f200f220920489ca2b5937696c3183604051611b1d91906127ed565b60405180910390a3505050565b611b3584848461167a565b611b4184848484611f9c565b611b80576040517f08c379a0000000000000000000000000000000000000000000000000000000008152600401611b7790613b04565b60405180910390fd5b50505050565b6060600c8054611b9590612ef5565b80601f0160208091040260200160405190810160405280929190818152602001828054611bc190612ef5565b8015611c0e5780601f10611be357610100808354040283529160200191611c0e565b820191906000526020600020905b815481529060010190602001808311611bf157829003601f168201915b5050505050905090565b60606000821415611c60576040518060400160405280600181526020017f30000000000000000000000000000000000000000000000000000000000000008152509050611d74565b600082905060005b60008214611c92578080611c7b906130e6565b915050600a82611c8b9190613b53565b9150611c68565b60008167ffffffffffffffff811115611cae57611cad612a75565b5b6040519080825280601f01601f191660200182016040528015611ce05781602001600182028036833780820191505090505b5090505b60008514611d6d57600182611cf99190613998565b9150600a85611d089190613b84565b6030611d14919061381e565b60f81b818381518110611d2a57611d29613593565b5b60200101907effffffffffffffffffffffffffffffffffffffffffffffffffffffffffffff1916908160001a905350600a85611d669190613b53565b9450611ce4565b8093505050505b919050565b60007f01ffc9a7000000000000000000000000000000000000000000000000000000007bffffffffffffffffffffffffffffffffffffffffffffffffffffffff1916827bffffffffffffffffffffffffffffffffffffffffffffffffffffffff1916149050919050565b60008073ffffffffffffffffffffffffffffffffffffffff166002600084815260200190815260200160002060009054906101000a900473ffffffffffffffffffffffffffffffffffffffff1673ffffffffffffffffffffffffffffffffffffffff1614159050919050565b611e69828260405180602001604052806000815250612133565b5050565b6001816000016000828254019250508190555050565b611e8e83838361218e565b600073ffffffffffffffffffffffffffffffffffffffff168373ffffffffffffffffffffffffffffffffffffffff161415611ed157611ecc81612193565b611f10565b8173ffffffffffffffffffffffffffffffffffffffff168373ffffffffffffffffffffffffffffffffffffffff1614611f0f57611f0e83826121dc565b5b5b600073ffffffffffffffffffffffffffffffffffffffff168273ffffffffffffffffffffffffffffffffffffffff161415611f5357611f4e81612349565b611f92565b8273ffffffffffffffffffffffffffffffffffffffff168273ffffffffffffffffffffffffffffffffffffffff1614611f9157611f90828261241a565b5b5b505050565b505050565b6000611fbd8473ffffffffffffffffffffffffffffffffffffffff16612499565b15612126578373ffffffffffffffffffffffffffffffffffffffff1663150b7a02611fe661145d565b8786866040518563ffffffff1660e01b81526004016120089493929190613c0a565b602060405180830381600087803b15801561202257600080fd5b505af192505050801561205357506040513d601f19601f820116820180604052508101906120509190613c6b565b60015b6120d6573d8060008114612083576040519150601f19603f3d011682016040523d82523d6000602084013e612088565b606091505b506000815114156120ce576040517f08c379a00000000000000000000000000000000000000000000000000000000081526004016120c590613b04565b60405180910390fd5b805181602001fd5b63150b7a0260e01b7bffffffffffffffffffffffffffffffffffffffffffffffffffffffff1916817bffffffffffffffffffffffffffffffffffffffffffffffffffffffff19161491505061212b565b600190505b949350505050565b61213d83836124bc565b61214a6000848484611f9c565b612189576040517f08c379a000000000000000000000000000000000000000000000000000000000815260040161218090613b04565b60405180910390fd5b505050565b505050565b6008805490506009600083815260200190815260200160002081905550600881908060018154018082558091505060019003906000526020600020016000909190919091505550565b600060016121e984610e69565b6121f39190613998565b90506000600760008481526020019081526020016000205490508181146122d8576000600660008673ffffffffffffffffffffffffffffffffffffffff1673ffffffffffffffffffffffffffffffffffffffff168152602001908152602001600020600084815260200190815260200160002054905080600660008773ffffffffffffffffffffffffffffffffffffffff1673ffffffffffffffffffffffffffffffffffffffff168152602001908152602001600020600084815260200190815260200160002081905550816007600083815260200190815260200160002081905550505b6007600084815260200190815260200160002060009055600660008573ffffffffffffffffffffffffffffffffffffffff1673ffffffffffffffffffffffffffffffffffffffff16815260200190815260200160002060008381526020019081526020016000206000905550505050565b6000600160088054905061235d9190613998565b905060006009600084815260200190815260200160002054905060006008838154811061238d5761238c613593565b5b9060005260206000200154905080600883815481106123af576123ae613593565b5b9060005260206000200181905550816009600083815260200190815260200160002081905550600960008581526020019081526020016000206000905560088054806123fe576123fd613c98565b5b6001900381819060005260206000200160009055905550505050565b600061242583610e69565b905081600660008573ffffffffffffffffffffffffffffffffffffffff1673ffffffffffffffffffffffffffffffffffffffff168152602001908152602001600020600083815260200190815260200160002081905550806007600084815260200190815260200160002081905550505050565b6000808273ffffffffffffffffffffffffffffffffffffffff163b119050919050565b600073ffffffffffffffffffffffffffffffffffffffff168273ffffffffffffffffffffffffffffffffffffffff16141561252c576040517f08c379a000000000000000000000000000000000000000000000000000000000815260040161252390613d13565b60405180910390fd5b61253581611de3565b15612575576040517f08c379a000000000000000000000000000000000000000000000000000000000815260040161256c90613d7f565b60405180910390fd5b61258160008383611e83565b6001600360008473ffffffffffffffffffffffffffffffffffffffff1673ffffffffffffffffffffffffffffffffffffffff16815260200190815260200160002060008282546125d1919061381e565b92505081905550816002600083815260200190815260200160002060006101000a81548173ffffffffffffffffffffffffffffffffffffffff021916908373ffffffffffffffffffffffffffffffffffffffff160217905550808273ffffffffffffffffffffffffffffffffffffffff16600073ffffffffffffffffffffffffffffffffffffffff167fddf252ad1be2c89b69c2b068fc378daa952ba7f163c4a11628f55a4df523b3ef60405160405180910390a461269260008383611f97565b5050565b8280546126a290612ef5565b90600052602060002090601f0160209004810192826126c4576000855561270b565b82601f106126dd57805160ff191683800117855561270b565b8280016001018555821561270b579182015b8281111561270a5782518255916020019190600101906126ef565b5b509050612718919061271c565b5090565b5b8082111561273557600081600090555060010161271d565b5090565b6000604051905090565b600080fd5b600080fd5b60007fffffffff0000000000000000000000000000000000000000000000000000000082169050919050565b6127828161274d565b811461278d57600080fd5b50565b60008135905061279f81612779565b92915050565b6000602082840312156127bb576127ba612743565b5b60006127c984828501612790565b91505092915050565b60008115159050919050565b6127e7816127d2565b82525050565b600060208201905061280260008301846127de565b92915050565b600081519050919050565b600082825260208201905092915050565b60005b83811015612842578082015181840152602081019050612827565b83811115612851576000848401525b50505050565b6000601f19601f8301169050919050565b600061287382612808565b61287d8185612813565b935061288d818560208601612824565b61289681612857565b840191505092915050565b600060208201905081810360008301526128bb8184612868565b905092915050565b6000819050919050565b6128d6816128c3565b81146128e157600080fd5b50565b6000813590506128f3816128cd565b92915050565b60006020828403121561290f5761290e612743565b5b600061291d848285016128e4565b91505092915050565b600073ffffffffffffffffffffffffffffffffffffffff82169050919050565b600061295182612926565b9050919050565b61296181612946565b82525050565b600060208201905061297c6000830184612958565b92915050565b61298b81612946565b811461299657600080fd5b50565b6000813590506129a881612982565b92915050565b600080604083850312156129c5576129c4612743565b5b60006129d385828601612999565b92505060206129e4858286016128e4565b9150509250929050565b6129f7816128c3565b82525050565b6000602082019050612a1260008301846129ee565b92915050565b600080600060608486031215612a3157612a30612743565b5b6000612a3f86828701612999565b9350506020612a5086828701612999565b9250506040612a61868287016128e4565b9150509250925092565b600080fd5b600080fd5b7f4e487b7100000000000000000000000000000000000000000000000000000000600052604160045260246000fd5b612aad82612857565b810181811067ffffffffffffffff82111715612acc57612acb612a75565b5b80604052505050565b6000612adf612739565b9050612aeb8282612aa4565b919050565b600067ffffffffffffffff821115612b0b57612b0a612a75565b5b612b1482612857565b9050602081019050919050565b82818337600083830152505050565b6000612b43612b3e84612af0565b612ad5565b905082815260208101848484011115612b5f57612b5e612a70565b5b612b6a848285612b21565b509392505050565b600082601f830112612b8757612b86612a6b565b5b8135612b97848260208601612b30565b91505092915050565b600060208284031215612bb657612bb5612743565b5b600082013567ffffffffffffffff811115612bd457612bd3612748565b5b612be084828501612b72565b91505092915050565b600060208284031215612bff57612bfe612743565b5b6000612c0d84828501612999565b91505092915050565b600081519050919050565b600082825260208201905092915050565b6000819050602082019050919050565b612c4b816128c3565b82525050565b6000612c5d8383612c42565b60208301905092915050565b6000602082019050919050565b6000612c8182612c16565b612c8b8185612c21565b9350612c9683612c32565b8060005b83811015612cc7578151612cae8882612c51565b9750612cb983612c69565b925050600181019050612c9a565b5085935050505092915050565b60006020820190508181036000830152612cee8184612c76565b905092915050565b612cff816127d2565b8114612d0a57600080fd5b50565b600081359050612d1c81612cf6565b92915050565b60008060408385031215612d3957612d38612743565b5b6000612d4785828601612999565b9250506020612d5885828601612d0d565b9150509250929050565b600067ffffffffffffffff821115612d7d57612d7c612a75565b5b612d8682612857565b9050602081019050919050565b6000612da6612da184612d62565b612ad5565b905082815260208101848484011115612dc257612dc1612a70565b5b612dcd848285612b21565b509392505050565b600082601f830112612dea57612de9612a6b565b5b8135612dfa848260208601612d93565b91505092915050565b60008060008060808587031215612e1d57612e1c612743565b5b6000612e2b87828801612999565b9450506020612e3c87828801612999565b9350506040612e4d878288016128e4565b925050606085013567ffffffffffffffff811115612e6e57612e6d612748565b5b612e7a87828801612dd5565b91505092959194509250565b60008060408385031215612e9d57612e9c612743565b5b6000612eab85828601612999565b9250506020612ebc85828601612999565b9150509250929050565b7f4e487b7100000000000000000000000000000000000000000000000000000000600052602260045260246000fd5b60006002820490506001821680612f0d57607f821691505b60208210811415612f2157612f20612ec6565b5b50919050565b7f4552433732313a20617070726f76616c20746f2063757272656e74206f776e6560008201527f7200000000000000000000000000000000000000000000000000000000000000602082015250565b6000612f83602183612813565b9150612f8e82612f27565b604082019050919050565b60006020820190508181036000830152612fb281612f76565b9050919050565b7f4552433732313a20617070726f76652063616c6c6572206973206e6f7420746f60008201527f6b656e206f776e6572206e6f7220617070726f76656420666f7220616c6c0000602082015250565b6000613015603e83612813565b915061302082612fb9565b604082019050919050565b6000602082019050818103600083015261304481613008565b9050919050565b7f4e6f7420656e6f756768204e465473206c65667420746f207265736572766500600082015250565b6000613081601f83612813565b915061308c8261304b565b602082019050919050565b600060208201905081810360008301526130b081613074565b9050919050565b7f4e487b7100000000000000000000000000000000000000000000000000000000600052601160045260246000fd5b60006130f1826128c3565b91507fffffffffffffffffffffffffffffffffffffffffffffffffffffffffffffffff821415613124576131236130b7565b5b600182019050919050565b7f4552433732313a2063616c6c6572206973206e6f7420746f6b656e206f776e6560008201527f72206e6f7220617070726f766564000000000000000000000000000000000000602082015250565b600061318b602e83612813565b91506131968261312f565b604082019050919050565b600060208201905081810360008301526131ba8161317e565b9050919050565b7f455243373231456e756d657261626c653a206f776e657220696e646578206f7560008201527f74206f6620626f756e6473000000000000000000000000000000000000000000602082015250565b600061321d602b83612813565b9150613228826131c1565b604082019050919050565b6000602082019050818103600083015261324c81613210565b9050919050565b7f4e6f7420656e6f756768204e465473206c656674210000000000000000000000600082015250565b6000613289601583612813565b915061329482613253565b602082019050919050565b600060208201905081810360008301526132b88161327c565b9050919050565b7f43616e6e6f74206d696e7420737065636966696564206e756d626572206f662060008201527f4e4654732e000000000000000000000000000000000000000000000000000000602082015250565b600061331b602583612813565b9150613326826132bf565b604082019050919050565b6000602082019050818103600083015261334a8161330e565b9050919050565b7f4e6f7420656e6f75676820657468657220746f207075726368617365204e465460008201527f732e000000000000000000000000000000000000000000000000000000000000602082015250565b60006133ad602283612813565b91506133b882613351565b604082019050919050565b600060208201905081810360008301526133dc816133a0565b9050919050565b7f4e6f206574686572206c65667420746f20776974686472617700000000000000600082015250565b6000613419601983612813565b9150613424826133e3565b602082019050919050565b600060208201905081810360008301526134488161340c565b9050919050565b600081905092915050565b50565b600061346a60008361344f565b91506134758261345a565b600082019050919050565b600061348b8261345d565b9150819050919050565b7f5472616e73666572206661696c65642e00000000000000000000000000000000600082015250565b60006134cb601083612813565b91506134d682613495565b602082019050919050565b600060208201905081810360008301526134fa816134be565b9050919050565b7f455243373231456e756d657261626c653a20676c6f62616c20696e646578206f60008201527f7574206f6620626f756e64730000000000000000000000000000000000000000602082015250565b600061355d602c83612813565b915061356882613501565b604082019050919050565b6000602082019050818103600083015261358c81613550565b9050919050565b7f4e487b7100000000000000000000000000000000000000000000000000000000600052603260045260246000fd5b7f4552433732313a20696e76616c696420746f6b656e2049440000000000000000600082015250565b60006135f8601883612813565b9150613603826135c2565b602082019050919050565b60006020820190508181036000830152613627816135eb565b9050919050565b7f4552433732313a2061646472657373207a65726f206973206e6f74206120766160008201527f6c6964206f776e65720000000000000000000000000000000000000000000000602082015250565b600061368a602983612813565b91506136958261362e565b604082019050919050565b600060208201905081810360008301526136b98161367d565b9050919050565b600081905092915050565b60006136d682612808565b6136e081856136c0565b93506136f0818560208601612824565b80840191505092915050565b600061370882856136cb565b915061371482846136cb565b91508190509392505050565b7f4f776e61626c653a206e6577206f776e657220697320746865207a65726f206160008201527f6464726573730000000000000000000000000000000000000000000000000000602082015250565b600061377c602683612813565b915061378782613720565b604082019050919050565b600060208201905081810360008301526137ab8161376f565b9050919050565b7f4f776e61626c653a2063616c6c6572206973206e6f7420746865206f776e6572600082015250565b60006137e8602083612813565b91506137f3826137b2565b602082019050919050565b60006020820190508181036000830152613817816137db565b9050919050565b6000613829826128c3565b9150613834836128c3565b9250827fffffffffffffffffffffffffffffffffffffffffffffffffffffffffffffffff03821115613869576138686130b7565b5b828201905092915050565b7f4552433732313a207472616e736665722066726f6d20696e636f72726563742060008201527f6f776e6572000000000000000000000000000000000000000000000000000000602082015250565b60006138d0602583612813565b91506138db82613874565b604082019050919050565b600060208201905081810360008301526138ff816138c3565b9050919050565b7f4552433732313a207472616e7366657220746f20746865207a65726f2061646460008201527f7265737300000000000000000000000000000000000000000000000000000000602082015250565b6000613962602483612813565b915061396d82613906565b604082019050919050565b6000602082019050818103600083015261399181613955565b9050919050565b60006139a3826128c3565b91506139ae836128c3565b9250828210156139c1576139c06130b7565b5b828203905092915050565b60006139d7826128c3565b91506139e2836128c3565b9250817fffffffffffffffffffffffffffffffffffffffffffffffffffffffffffffffff0483118215151615613a1b57613a1a6130b7565b5b828202905092915050565b7f4552433732313a20617070726f766520746f2063616c6c657200000000000000600082015250565b6000613a5c601983612813565b9150613a6782613a26565b602082019050919050565b60006020820190508181036000830152613a8b81613a4f565b9050919050565b7f4552433732313a207472616e7366657220746f206e6f6e20455243373231526560008201527f63656976657220696d706c656d656e7465720000000000000000000000000000602082015250565b6000613aee603283612813565b9150613af982613a92565b604082019050919050565b60006020820190508181036000830152613b1d81613ae1565b9050919050565b7f4e487b7100000000000000000000000000000000000000000000000000000000600052601260045260246000fd5b6000613b5e826128c3565b9150613b69836128c3565b925082613b7957613b78613b24565b5b828204905092915050565b6000613b8f826128c3565b9150613b9a836128c3565b925082613baa57613ba9613b24565b5b828206905092915050565b600081519050919050565b600082825260208201905092915050565b6000613bdc82613bb5565b613be68185613bc0565b9350613bf6818560208601612824565b613bff81612857565b840191505092915050565b6000608082019050613c1f6000830187612958565b613c2c6020830186612958565b613c3960408301856129ee565b8181036060830152613c4b8184613bd1565b905095945050505050565b600081519050613c6581612779565b92915050565b600060208284031215613c8157613c80612743565b5b6000613c8f84828501613c56565b91505092915050565b7f4e487b7100000000000000000000000000000000000000000000000000000000600052603160045260246000fd5b7f4552433732313a206d696e7420746f20746865207a65726f2061646472657373600082015250565b6000613cfd602083612813565b9150613d0882613cc7565b602082019050919050565b60006020820190508181036000830152613d2c81613cf0565b9050919050565b7f4552433732313a20746f6b656e20616c7265616479206d696e74656400000000600082015250565b6000613d69601c83612813565b9150613d7482613d33565b602082019050919050565b60006020820190508181036000830152613d9881613d5c565b905091905056fea2646970667358221220c71f16a553a74bf6f6372270ac87c04f027649b2d8d6f0468116381172b7907064736f6c63430008090033",
  "linkReferences": {},
  "deployedLinkReferences": {}
}